{
    "contractName": "SingleTokenBank",
    "abi": [
        {
            "constant": true,
            "inputs": [
                {
                    "name": "",
                    "type": "address"
                }
            ],
            "name": "balances",
            "outputs": [
                {
                    "name": "",
                    "type": "uint256"
                }
            ],
            "payable": false,
            "stateMutability": "view",
            "type": "function"
        },
        {
            "constant": false,
            "inputs": [
                {
                    "name": "time",
                    "type": "uint256"
                }
            ],
            "name": "changeReleaseTime",
            "outputs": [],
            "payable": false,
            "stateMutability": "nonpayable",
            "type": "function"
        },
        {
            "constant": false,
            "inputs": [],
            "name": "unpause",
            "outputs": [],
            "payable": false,
            "stateMutability": "nonpayable",
            "type": "function"
        },
        {
            "constant": true,
            "inputs": [],
            "name": "paused",
            "outputs": [
                {
                    "name": "",
                    "type": "bool"
                }
            ],
            "payable": false,
            "stateMutability": "view",
            "type": "function"
        },
        {
            "constant": true,
            "inputs": [],
            "name": "maxDeposit",
            "outputs": [
                {
                    "name": "",
                    "type": "uint256"
                }
            ],
            "payable": false,
            "stateMutability": "view",
            "type": "function"
        },
        {
            "constant": true,
            "inputs": [],
            "name": "totalPlayerBalance",
            "outputs": [
                {
                    "name": "",
                    "type": "uint256"
                }
            ],
            "payable": false,
            "stateMutability": "view",
            "type": "function"
        },
        {
            "constant": true,
            "inputs": [
                {
                    "name": "",
                    "type": "address"
                }
            ],
            "name": "withdrawals",
            "outputs": [
                {
                    "name": "amount",
                    "type": "uint256"
                },
                {
                    "name": "timestamp",
                    "type": "uint256"
                }
            ],
            "payable": false,
            "stateMutability": "view",
            "type": "function"
        },
        {
            "constant": false,
            "inputs": [],
            "name": "pause",
            "outputs": [],
            "payable": false,
            "stateMutability": "nonpayable",
            "type": "function"
        },
        {
            "constant": true,
            "inputs": [],
            "name": "maxWithdrawal",
            "outputs": [
                {
                    "name": "",
                    "type": "uint256"
                }
            ],
            "payable": false,
            "stateMutability": "view",
            "type": "function"
        },
        {
            "constant": true,
            "inputs": [],
            "name": "owner",
            "outputs": [
                {
                    "name": "",
                    "type": "address"
                }
            ],
            "payable": false,
            "stateMutability": "view",
            "type": "function"
        },
        {
            "constant": false,
            "inputs": [
                {
                    "name": "account",
                    "type": "address"
                }
            ],
            "name": "changeOwner",
            "outputs": [],
            "payable": false,
            "stateMutability": "nonpayable",
            "type": "function"
        },
        {
            "constant": false,
            "inputs": [
                {
                    "name": "account",
                    "type": "address"
                }
            ],
            "name": "authorizeAccount",
            "outputs": [],
            "payable": false,
            "stateMutability": "nonpayable",
            "type": "function"
        },
        {
            "constant": false,
            "inputs": [
                {
                    "name": "account",
                    "type": "address"
                }
            ],
            "name": "unauthorizeAccount",
            "outputs": [],
            "payable": false,
            "stateMutability": "nonpayable",
            "type": "function"
        },
        {
            "constant": true,
            "inputs": [
                {
                    "name": "",
                    "type": "address"
                }
            ],
            "name": "authorized",
            "outputs": [
                {
                    "name": "",
                    "type": "bool"
                }
            ],
            "payable": false,
            "stateMutability": "view",
            "type": "function"
        },
        {
            "constant": true,
            "inputs": [],
            "name": "releaseTime",
            "outputs": [
                {
                    "name": "",
                    "type": "uint256"
                }
            ],
            "payable": false,
            "stateMutability": "view",
            "type": "function"
        },
        {
            "constant": true,
            "inputs": [],
            "name": "token",
            "outputs": [
                {
                    "name": "",
                    "type": "address"
                }
            ],
            "payable": false,
            "stateMutability": "view",
            "type": "function"
        },
        {
            "inputs": [
                {
                    "name": "_token",
                    "type": "address"
                },
                {
                    "name": "_authorized",
                    "type": "address"
                },
                {
                    "name": "_owner",
                    "type": "address"
                }
            ],
            "payable": false,
            "stateMutability": "nonpayable",
            "type": "constructor"
        },
        {
            "anonymous": false,
            "inputs": [
                {
                    "indexed": false,
                    "name": "_player",
                    "type": "address"
                },
                {
                    "indexed": false,
                    "name": "_amount",
                    "type": "uint256"
                }
            ],
            "name": "Deposit",
            "type": "event"
        },
        {
            "anonymous": false,
            "inputs": [
                {
                    "indexed": false,
                    "name": "_player",
                    "type": "address"
                },
                {
                    "indexed": false,
                    "name": "_amount",
                    "type": "uint256"
                }
            ],
            "name": "WithdrawalEvent",
            "type": "event"
        },
        {
            "anonymous": false,
            "inputs": [
                {
                    "indexed": false,
                    "name": "_player",
                    "type": "address"
                },
                {
                    "indexed": false,
                    "name": "_amount",
                    "type": "uint256"
                }
            ],
            "name": "WithdrawalSet",
            "type": "event"
        },
        {
            "anonymous": false,
            "inputs": [
                {
                    "indexed": false,
                    "name": "_totalPlayerBalance",
                    "type": "uint256"
                }
            ],
            "name": "BalancesChanged",
            "type": "event"
        },
        {
            "anonymous": false,
            "inputs": [
                {
                    "indexed": false,
                    "name": "_maxWithdrawal",
                    "type": "uint256"
                }
            ],
            "name": "MaxWithdrawalChange",
            "type": "event"
        },
        {
            "anonymous": false,
            "inputs": [
                {
                    "indexed": false,
                    "name": "_maxDeposit",
                    "type": "uint256"
                }
            ],
            "name": "MaxDepositChange",
            "type": "event"
        },
        {
            "anonymous": false,
            "inputs": [],
            "name": "Pause",
            "type": "event"
        },
        {
            "anonymous": false,
            "inputs": [],
            "name": "Unpause",
            "type": "event"
        },
        {
            "constant": false,
            "inputs": [
                {
                    "name": "_amount",
                    "type": "uint256"
                }
            ],
            "name": "deposit",
            "outputs": [],
            "payable": false,
            "stateMutability": "nonpayable",
            "type": "function"
        },
        {
            "constant": false,
            "inputs": [
                {
                    "name": "_player",
                    "type": "address[]"
                },
                {
                    "name": "_amount",
                    "type": "uint256[]"
                },
                {
                    "name": "_totalPlayerBalance",
                    "type": "uint256"
                }
            ],
            "name": "changeBalances",
            "outputs": [],
            "payable": false,
            "stateMutability": "nonpayable",
            "type": "function"
        },
        {
            "constant": false,
            "inputs": [
                {
                    "name": "_amount",
                    "type": "uint256"
                }
            ],
            "name": "updatePlayerBalance",
            "outputs": [],
            "payable": false,
            "stateMutability": "nonpayable",
            "type": "function"
        },
        {
            "constant": true,
            "inputs": [],
            "name": "bankroll",
            "outputs": [
                {
                    "name": "",
                    "type": "uint256"
                }
            ],
            "payable": false,
            "stateMutability": "view",
            "type": "function"
        },
        {
            "constant": false,
            "inputs": [
                {
                    "name": "_player",
                    "type": "address"
                },
                {
                    "name": "_amount",
                    "type": "uint256"
                }
            ],
            "name": "setWithdrawal",
            "outputs": [],
            "payable": false,
            "stateMutability": "nonpayable",
            "type": "function"
        },
        {
            "constant": false,
            "inputs": [
                {
                    "name": "_amount",
                    "type": "uint256"
                }
            ],
            "name": "withdraw",
            "outputs": [],
            "payable": false,
            "stateMutability": "nonpayable",
            "type": "function"
        },
        {
            "constant": false,
            "inputs": [
                {
                    "name": "_max",
                    "type": "uint256"
                }
            ],
            "name": "changeMaxDeposit",
            "outputs": [],
            "payable": false,
            "stateMutability": "nonpayable",
            "type": "function"
        },
        {
            "constant": false,
            "inputs": [
                {
                    "name": "_max",
                    "type": "uint256"
                }
            ],
            "name": "changeMaxWithdrawal",
            "outputs": [],
            "payable": false,
            "stateMutability": "nonpayable",
            "type": "function"
        },
        {
            "constant": false,
            "inputs": [
                {
                    "name": "_destination",
                    "type": "address"
                },
                {
                    "name": "_amount",
                    "type": "uint256"
                }
            ],
            "name": "ownerWithdrawalEther",
            "outputs": [],
            "payable": false,
            "stateMutability": "nonpayable",
            "type": "function"
        },
        {
            "constant": false,
            "inputs": [
                {
                    "name": "_destination",
                    "type": "address"
                },
                {
                    "name": "_amount",
                    "type": "uint256"
                }
            ],
            "name": "ownerWithdrawalTokens",
            "outputs": [],
            "payable": false,
            "stateMutability": "nonpayable",
            "type": "function"
        }
    ],
    "bytecode": "0x6080604052336000806101000a81548173ffffffffffffffffffffffffffffffffffffffff021916908373ffffffffffffffffffffffffffffffffffffffff16021790555060006001556000600455600060055534801561005f57600080fd5b50604051606080611e608339810180604052606081101561007f57600080fd5b8101908080519060200190929190805190602001909291908051906020019092919050505082600360006101000a81548173ffffffffffffffffffffffffffffffffffffffff021916908373ffffffffffffffffffffffffffffffffffffffff160217905550806000806101000a81548173ffffffffffffffffffffffffffffffffffffffff021916908373ffffffffffffffffffffffffffffffffffffffff1602179055506001600260008473ffffffffffffffffffffffffffffffffffffffff1673ffffffffffffffffffffffffffffffffffffffff16815260200190815260200160002060006101000a81548160ff0219169083151502179055506001600260008060009054906101000a900473ffffffffffffffffffffffffffffffffffffffff1673ffffffffffffffffffffffffffffffffffffffff1673ffffffffffffffffffffffffffffffffffffffff16815260200190815260200160002060006101000a81548160ff021916908315150217905550505050611c58806102086000396000f3fe608060405234801561001057600080fd5b506004361061018e5760003560e01c80638456cb59116100de578063b0b2a57511610097578063b918161111610071578063b91816111461060c578063b91d400114610668578063bb67ffdc14610686578063fc0c546a1461075e5761018e565b8063b0b2a5751461056c578063b39cf93f146105b0578063b6b55f25146105de5761018e565b80638456cb59146104245780638c0ff5b71461042e5780638da5cb5b1461044c578063a25b0f7214610496578063a6f9dae1146104e4578063a9a8679b146105285761018e565b80633f4ba83a1161014b5780635c975abb116101255780635c975abb146103675780636083e59a146103895780636e30418b146103a75780637a9262a2146103c55761018e565b80633f4ba83a1461030157806340e1eaf21461030b57806353fefd7d146103395761018e565b80630c657eb01461019357806324861c03146101b1578063275ba344146101ff57806327e235e31461024d5780632e0f2ce1146102a55780632e1a7d4d146102d3575b600080fd5b61019b6107a8565b6040518082815260200191505060405180910390f35b6101fd600480360360408110156101c757600080fd5b81019080803573ffffffffffffffffffffffffffffffffffffffff16906020019092919080359060200190929190505050610894565b005b61024b6004803603604081101561021557600080fd5b81019080803573ffffffffffffffffffffffffffffffffffffffff16906020019092919080359060200190929190505050610abb565b005b61028f6004803603602081101561026357600080fd5b81019080803573ffffffffffffffffffffffffffffffffffffffff169060200190929190505050610b79565b6040518082815260200191505060405180910390f35b6102d1600480360360208110156102bb57600080fd5b8101908080359060200190929190505050610b91565b005b6102ff600480360360208110156102e957600080fd5b8101908080359060200190929190505050610bf1565b005b610309610f2c565b005b6103376004803603602081101561032157600080fd5b8101908080359060200190929190505050610fca565b005b6103656004803603602081101561034f57600080fd5b8101908080359060200190929190505050611078565b005b61036f611126565b604051808215151515815260200191505060405180910390f35b610391611139565b6040518082815260200191505060405180910390f35b6103af61113f565b6040518082815260200191505060405180910390f35b610407600480360360208110156103db57600080fd5b81019080803573ffffffffffffffffffffffffffffffffffffffff169060200190929190505050611145565b604051808381526020018281526020019250505060405180910390f35b61042c611169565b005b610436611208565b6040518082815260200191505060405180910390f35b61045461120e565b604051808273ffffffffffffffffffffffffffffffffffffffff1673ffffffffffffffffffffffffffffffffffffffff16815260200191505060405180910390f35b6104e2600480360360408110156104ac57600080fd5b81019080803573ffffffffffffffffffffffffffffffffffffffff16906020019092919080359060200190929190505050611233565b005b610526600480360360208110156104fa57600080fd5b81019080803573ffffffffffffffffffffffffffffffffffffffff16906020019092919050505061144f565b005b61056a6004803603602081101561053e57600080fd5b81019080803573ffffffffffffffffffffffffffffffffffffffff1690602001909291905050506114e8565b005b6105ae6004803603602081101561058257600080fd5b81019080803573ffffffffffffffffffffffffffffffffffffffff169060200190929190505050611599565b005b6105dc600480360360208110156105c657600080fd5b810190808035906020019092919050505061164a565b005b61060a600480360360208110156105f457600080fd5b81019080803590602001909291905050506116fc565b005b61064e6004803603602081101561062257600080fd5b81019080803573ffffffffffffffffffffffffffffffffffffffff169060200190929190505050611a59565b604051808215151515815260200191505060405180910390f35b610670611a79565b6040518082815260200191505060405180910390f35b61075c6004803603606081101561069c57600080fd5b81019080803590602001906401000000008111156106b957600080fd5b8201836020820111156106cb57600080fd5b803590602001918460208302840111640100000000831117156106ed57600080fd5b90919293919293908035906020019064010000000081111561070e57600080fd5b82018360208201111561072057600080fd5b8035906020019184602083028401116401000000008311171561074257600080fd5b909192939192939080359060200190929190505050611a7f565b005b610766611bd2565b604051808273ffffffffffffffffffffffffffffffffffffffff1673ffffffffffffffffffffffffffffffffffffffff16815260200191505060405180910390f35b600061088f600360009054906101000a900473ffffffffffffffffffffffffffffffffffffffff1673ffffffffffffffffffffffffffffffffffffffff166370a08231306040518263ffffffff1660e01b8152600401808273ffffffffffffffffffffffffffffffffffffffff1673ffffffffffffffffffffffffffffffffffffffff16815260200191505060206040518083038186803b15801561084c57600080fd5b505afa158015610860573d6000803e3d6000fd5b505050506040513d602081101561087657600080fd5b8101908080519060200190929190505050600654611bf8565b905090565b6000809054906101000a900473ffffffffffffffffffffffffffffffffffffffff1673ffffffffffffffffffffffffffffffffffffffff163373ffffffffffffffffffffffffffffffffffffffff16146108ea57fe5b60001515600060149054906101000a900460ff16151514801561090f57506006548111155b8061092d575060011515600060149054906101000a900460ff161515145b61093357fe5b600360009054906101000a900473ffffffffffffffffffffffffffffffffffffffff1673ffffffffffffffffffffffffffffffffffffffff1663a9059cbb83836040518363ffffffff1660e01b8152600401808373ffffffffffffffffffffffffffffffffffffffff1673ffffffffffffffffffffffffffffffffffffffff16815260200182815260200192505050602060405180830381600087803b1580156109dc57600080fd5b505af11580156109f0573d6000803e3d6000fd5b505050506040513d6020811015610a0657600080fd5b8101908080519060200190929190505050610a1d57fe5b60001515600060149054906101000a900460ff1615151415610a4c57610a4560065482611bf8565b6006819055505b7f2f174ca282119315c59efaf21147aef438581dabdeb498198ae28964373dd8bc3082604051808373ffffffffffffffffffffffffffffffffffffffff1673ffffffffffffffffffffffffffffffffffffffff1681526020018281526020019250505060405180910390a15050565b6000809054906101000a900473ffffffffffffffffffffffffffffffffffffffff1673ffffffffffffffffffffffffffffffffffffffff163373ffffffffffffffffffffffffffffffffffffffff1614610b1157fe5b60011515600060149054906101000a900460ff16151514610b2e57fe5b8173ffffffffffffffffffffffffffffffffffffffff166108fc829081150290604051600060405180830381858888f19350505050158015610b74573d6000803e3d6000fd5b505050565b60076020528060005260406000206000915090505481565b6000809054906101000a900473ffffffffffffffffffffffffffffffffffffffff1673ffffffffffffffffffffffffffffffffffffffff163373ffffffffffffffffffffffffffffffffffffffff1614610be757fe5b8060018190555050565b600060149054906101000a900460ff1615610c0857fe5b600860003373ffffffffffffffffffffffffffffffffffffffff1673ffffffffffffffffffffffffffffffffffffffff16815260200190815260200160002060000154811115610c5457fe5b600454811115610c6057fe5b610cae600860003373ffffffffffffffffffffffffffffffffffffffff1673ffffffffffffffffffffffffffffffffffffffff16815260200190815260200160002060010154600154611c12565b4211610cb657fe5b610cff600760003373ffffffffffffffffffffffffffffffffffffffff1673ffffffffffffffffffffffffffffffffffffffff1681526020019081526020016000205482611bf8565b600760003373ffffffffffffffffffffffffffffffffffffffff1673ffffffffffffffffffffffffffffffffffffffff16815260200190815260200160002081905550610d8e600860003373ffffffffffffffffffffffffffffffffffffffff1673ffffffffffffffffffffffffffffffffffffffff1681526020019081526020016000206000015482611bf8565b600860003373ffffffffffffffffffffffffffffffffffffffff1673ffffffffffffffffffffffffffffffffffffffff16815260200190815260200160002060000181905550600360009054906101000a900473ffffffffffffffffffffffffffffffffffffffff1673ffffffffffffffffffffffffffffffffffffffff1663a9059cbb33836040518363ffffffff1660e01b8152600401808373ffffffffffffffffffffffffffffffffffffffff1673ffffffffffffffffffffffffffffffffffffffff16815260200182815260200192505050602060405180830381600087803b158015610e7d57600080fd5b505af1158015610e91573d6000803e3d6000fd5b505050506040513d6020811015610ea757600080fd5b8101908080519060200190929190505050610ebe57fe5b7f2f174ca282119315c59efaf21147aef438581dabdeb498198ae28964373dd8bc3382604051808373ffffffffffffffffffffffffffffffffffffffff1673ffffffffffffffffffffffffffffffffffffffff1681526020018281526020019250505060405180910390a150565b6000809054906101000a900473ffffffffffffffffffffffffffffffffffffffff1673ffffffffffffffffffffffffffffffffffffffff163373ffffffffffffffffffffffffffffffffffffffff1614610f8257fe5b60008060146101000a81548160ff0219169083151502179055507f7805862f689e2f13df9f062ff482ad3ad112aca9e0847911ed832e158c525b3360405160405180910390a1565b600060149054906101000a900460ff1615610fe157fe5b6000809054906101000a900473ffffffffffffffffffffffffffffffffffffffff1673ffffffffffffffffffffffffffffffffffffffff163373ffffffffffffffffffffffffffffffffffffffff161461103757fe5b806004819055507f22806588c55fbd6351d4dad507eb99ddd3448630220e6515737f5a5b329e727a816040518082815260200191505060405180910390a150565b600060149054906101000a900460ff161561108f57fe5b6000809054906101000a900473ffffffffffffffffffffffffffffffffffffffff1673ffffffffffffffffffffffffffffffffffffffff163373ffffffffffffffffffffffffffffffffffffffff16146110e557fe5b806005819055507f5dc3eb8a3363ea4392bceb15ba3cf7d3967930a6fef5c7704345c104f39b63a8816040518082815260200191505060405180910390a150565b600060149054906101000a900460ff1681565b60055481565b60065481565b60086020528060005260406000206000915090508060000154908060010154905082565b6000809054906101000a900473ffffffffffffffffffffffffffffffffffffffff1673ffffffffffffffffffffffffffffffffffffffff163373ffffffffffffffffffffffffffffffffffffffff16146111bf57fe5b6001600060146101000a81548160ff0219169083151502179055507f6985a02210a168e66602d3235cb6db0e70f92b3ba4d376a33c0f3d9434bff62560405160405180910390a1565b60045481565b6000809054906101000a900473ffffffffffffffffffffffffffffffffffffffff1681565b600060149054906101000a900460ff161561124a57fe5b60011515600260003373ffffffffffffffffffffffffffffffffffffffff1673ffffffffffffffffffffffffffffffffffffffff16815260200190815260200160002060009054906101000a900460ff161515146112a457fe5b6004548111156112b057fe5b6004546112ff600860008573ffffffffffffffffffffffffffffffffffffffff1673ffffffffffffffffffffffffffffffffffffffff1681526020019081526020016000206000015483611c12565b111561130757fe5b611353600860008473ffffffffffffffffffffffffffffffffffffffff1673ffffffffffffffffffffffffffffffffffffffff1681526020019081526020016000206000015482611c12565b600860008473ffffffffffffffffffffffffffffffffffffffff1673ffffffffffffffffffffffffffffffffffffffff1681526020019081526020016000206000018190555042600860008473ffffffffffffffffffffffffffffffffffffffff1673ffffffffffffffffffffffffffffffffffffffff168152602001908152602001600020600101819055507f38ad611b8ae457b9126d4917f4ded0b60a8fbbfdd0dd4b04fc9469688b44934f8282604051808373ffffffffffffffffffffffffffffffffffffffff1673ffffffffffffffffffffffffffffffffffffffff1681526020018281526020019250505060405180910390a15050565b6000809054906101000a900473ffffffffffffffffffffffffffffffffffffffff1673ffffffffffffffffffffffffffffffffffffffff163373ffffffffffffffffffffffffffffffffffffffff16146114a557fe5b806000806101000a81548173ffffffffffffffffffffffffffffffffffffffff021916908373ffffffffffffffffffffffffffffffffffffffff16021790555050565b6000809054906101000a900473ffffffffffffffffffffffffffffffffffffffff1673ffffffffffffffffffffffffffffffffffffffff163373ffffffffffffffffffffffffffffffffffffffff161461153e57fe5b6001600260008373ffffffffffffffffffffffffffffffffffffffff1673ffffffffffffffffffffffffffffffffffffffff16815260200190815260200160002060006101000a81548160ff02191690831515021790555050565b6000809054906101000a900473ffffffffffffffffffffffffffffffffffffffff1673ffffffffffffffffffffffffffffffffffffffff163373ffffffffffffffffffffffffffffffffffffffff16146115ef57fe5b6000600260008373ffffffffffffffffffffffffffffffffffffffff1673ffffffffffffffffffffffffffffffffffffffff16815260200190815260200160002060006101000a81548160ff02191690831515021790555050565b600060149054906101000a900460ff161561166157fe5b60011515600260003373ffffffffffffffffffffffffffffffffffffffff1673ffffffffffffffffffffffffffffffffffffffff16815260200190815260200160002060009054906101000a900460ff161515146116bb57fe5b806006819055507f780d3b448c47b0fbf718d3bec2b9fc70c3e4eca54680d29383b8153a6466b1c2816040518082815260200191505060405180910390a150565b600060149054906101000a900460ff161561171357fe5b6000600360009054906101000a900473ffffffffffffffffffffffffffffffffffffffff1673ffffffffffffffffffffffffffffffffffffffff1663dd62ed3e33306040518363ffffffff1660e01b8152600401808373ffffffffffffffffffffffffffffffffffffffff1673ffffffffffffffffffffffffffffffffffffffff1681526020018273ffffffffffffffffffffffffffffffffffffffff1673ffffffffffffffffffffffffffffffffffffffff1681526020019250505060206040518083038186803b1580156117e857600080fd5b505afa1580156117fc573d6000803e3d6000fd5b505050506040513d602081101561181257600080fd5b810190808051906020019092919050505090506000821161182f57fe5b8082111561183957fe5b60055482111561184557fe5b600360009054906101000a900473ffffffffffffffffffffffffffffffffffffffff1673ffffffffffffffffffffffffffffffffffffffff166323b872dd3330856040518463ffffffff1660e01b8152600401808473ffffffffffffffffffffffffffffffffffffffff1673ffffffffffffffffffffffffffffffffffffffff1681526020018373ffffffffffffffffffffffffffffffffffffffff1673ffffffffffffffffffffffffffffffffffffffff1681526020018281526020019350505050602060405180830381600087803b15801561192257600080fd5b505af1158015611936573d6000803e3d6000fd5b505050506040513d602081101561194c57600080fd5b8101908080519060200190929190505050506119a7600760003373ffffffffffffffffffffffffffffffffffffffff1673ffffffffffffffffffffffffffffffffffffffff1681526020019081526020016000205483611c12565b600760003373ffffffffffffffffffffffffffffffffffffffff1673ffffffffffffffffffffffffffffffffffffffff168152602001908152602001600020819055507fe1fffcc4923d04b559f4d29a8bfc6cda04eb5b0d3c460751c2402c5c5cc9109c3382604051808373ffffffffffffffffffffffffffffffffffffffff1673ffffffffffffffffffffffffffffffffffffffff1681526020018281526020019250505060405180910390a15050565b60026020528060005260406000206000915054906101000a900460ff1681565b60015481565b600060149054906101000a900460ff1615611a9657fe5b60011515600260003373ffffffffffffffffffffffffffffffffffffffff1673ffffffffffffffffffffffffffffffffffffffff16815260200190815260200160002060009054906101000a900460ff16151514611af057fe5b60008090505b85859050811015611b8c57838382818110611b0d57fe5b9050602002013560076000888885818110611b2457fe5b9050602002013573ffffffffffffffffffffffffffffffffffffffff1673ffffffffffffffffffffffffffffffffffffffff1673ffffffffffffffffffffffffffffffffffffffff168152602001908152602001600020819055508080600101915050611af6565b50806006819055507f780d3b448c47b0fbf718d3bec2b9fc70c3e4eca54680d29383b8153a6466b1c2816040518082815260200191505060405180910390a15050505050565b600360009054906101000a900473ffffffffffffffffffffffffffffffffffffffff1681565b6000828284039150811115611c0c57600080fd5b92915050565b6000828284019150811015611c2657600080fd5b9291505056fea165627a7a72305820e03f7e8ce922e00ab2d49e360b60b062d90b81e4247040a0edb021336769d1db0029",
    "source": "pragma solidity ^0.5.0;\n\n/**\n  * @title DSMath\n  * @author MakerDAO\n  * @notice Safe math contracts from Maker.\n  */\ncontract DSMath {\n    function add(uint x, uint y) internal pure returns (uint z) {\n        require((z = x + y) >= x);\n    }\n    function sub(uint x, uint y) internal pure returns (uint z) {\n        require((z = x - y) <= x);\n    }\n    function mul(uint x, uint y) internal pure returns (uint z) {\n        require(y == 0 || (z = x * y) / y == x);\n    }\n\n    function min(uint x, uint y) internal pure returns (uint z) {\n        return x <= y ? x : y;\n    }\n    function max(uint x, uint y) internal pure returns (uint z) {\n        return x >= y ? x : y;\n    }\n    function imin(int x, int y) internal pure returns (int z) {\n        return x <= y ? x : y;\n    }\n    function imax(int x, int y) internal pure returns (int z) {\n        return x >= y ? x : y;\n    }\n}\n\n/**\n  * @title Owned\n  * @author BetProtocol\n  * @notice Basic owner properties.\n  */\ncontract Owned {\n    address public owner = msg.sender;\n\n    modifier isOwner {\n        assert(msg.sender == owner); _;\n    }\n\n    function changeOwner(address account) external isOwner {\n        owner = account;\n    }\n}\n\n/**\n  * @title Authorized\n  * @author BetProtocol\n  * @notice Allows a second tier of authrozed accounts. In this case will be the server keys.\n  * Only the Owner multisig can authorize new accounts.\n  */\ncontract Authorized is Owned {\n    mapping(address => bool) public authorized;\n\n    modifier isAuthorized {\n        assert(authorized[msg.sender] == true); _;\n    }\n\n    function authorizeAccount(address account) external isOwner {\n        authorized[account] = true;\n    }\n\n    function unauthorizeAccount(address account) external isOwner {\n        authorized[account] = false;\n    }\n}\n\n/**\n  * @title TimeRelease\n  * @author BetProtocol\n  * @notice Controls the generic release time for authorized transactions.\n  */\ncontract TimeRelease is Owned {\n    uint256 public releaseTime = 0;\n    \n    function changeReleaseTime(uint256 time) external isOwner {\n        releaseTime = time;\n    }\n}\n\n/**\n  * @title Pausable\n  * @author BetProtocol\n  * @notice Primitive events, methods, properties for a contract which can be\n        paused by a single owner.\n  */\ncontract Pausable is Owned {\n    event Pause();\n    event Unpause();\n\n    bool public paused;\n\n    modifier pausable {\n        assert(!paused); _;\n    }\n\n    function pause() external isOwner {\n        paused = true;\n\n        emit Pause();\n    }\n\n    function unpause() external isOwner {\n        paused = false;\n\n        emit Unpause();\n    }\n}\n\n/**\n  * @title ERC20Events\n  * @author EIP20 Authors\n  * @notice Primitive events for the ERC20 event specification.\n  */\ncontract ERC20Events {\n    event Transfer(address indexed from, address indexed to, uint256 tokens);\n    event Approval(address indexed tokenOwner, address indexed spender, uint256 tokens);\n}\n\n/**\n  * @title ERC20\n  * @author EIP/ERC20 Authors\n  * @author BokkyPooBah / Bok Consulting Pty Ltd 2018.\n  * @notice The ERC20 standard contract interface.\n  */\ncontract ERC20 is ERC20Events {\n    function totalSupply() external view returns (uint);\n    function balanceOf(address tokenOwner) public view returns (uint);\n    function allowance(address tokenOwner, address spender) external view returns (uint);\n\n    function approve(address spender, uint amount) public returns (bool);\n    function transfer(address to, uint amount) external returns (bool);\n    function transferFrom(\n        address from, address to, uint amount\n    ) public returns (bool);\n}\n\n/**\n  * @title SingleTokenBank\n  * @author EIP/ERC20 Authors\n  * @author BokkyPooBah / Bok Consulting Pty Ltd 2018.\n  * @notice The ERC20 standard contract interface.\n  */\ncontract SingleTokenBank is Owned, Pausable, TimeRelease, Authorized, DSMath {\n    struct Withdrawal {\n        uint256 amount;\n        uint256 timestamp;\n    }\n\n    ERC20 public token;\n    uint256 public maxWithdrawal = 0;\n    uint256 public maxDeposit = 0;\n    uint256 public totalPlayerBalance;\n    mapping(address => uint256) public balances;\n    mapping(address => Withdrawal) public withdrawals;\n\n\t// informs listeners how many tokens were deposited for a player\n\tevent Deposit(address _player, uint256 _amount);\n\n\t// informs listeners how many tokens were withdrawn from the player to the receiver address\n\tevent WithdrawalEvent(address _player, uint256 _amount);\n\t\n\t// set withdrawal\n\tevent WithdrawalSet(address _player, uint256 _amount);\n\t\n\t// balances changed\n\tevent BalancesChanged(uint256 _totalPlayerBalance);\n\t\n\t// max withdrawal changed\n\tevent MaxWithdrawalChange(uint256 _maxWithdrawal);\n\t\n\t// max withdrawal changed\n\tevent MaxDepositChange(uint256 _maxDeposit);\n\n\tconstructor(address _token, address _authorized, address _owner) public {\n\t   token = ERC20(_token);\n\t   owner = _owner; // multisig\n\t   authorized[_authorized] = true; // your server address\n\t   authorized[owner] = true; // also multisig\n\t}\n\n\tfunction deposit(uint256 _amount) external pausable {\n        uint256 allowance = token.allowance(msg.sender, address(this));\n        assert(_amount > 0);\n        assert(_amount <= allowance);\n        assert(_amount <= maxDeposit);\n        token.transferFrom(msg.sender, address(this), _amount);\n        balances[msg.sender] = add(balances[msg.sender], _amount);\n        emit Deposit(msg.sender, allowance);\n\t}\n\n    // change one or many player balances\n\tfunction changeBalances(address[] calldata _player, uint256[] calldata  _amount, uint256 _totalPlayerBalance) external pausable isAuthorized {\n\t\tfor (uint256 i = 0; i < _player.length; i++) {\n\t\t    balances[_player[i]] = _amount[i];\n\t\t}\n\t\t\n\t\ttotalPlayerBalance = _totalPlayerBalance;\n\t\temit BalancesChanged(_totalPlayerBalance);\n\t}\n\t\n    function updatePlayerBalance(uint256 _amount) public pausable isAuthorized {\n        totalPlayerBalance = _amount;\n\t\temit BalancesChanged(_amount);\n    }\n\n    \n\t/**\n\t * returns the current bankroll in tokens with 0 decimals\n\t **/\n\tfunction bankroll() view public returns(uint) {\n\t\treturn sub(token.balanceOf(address(this)), totalPlayerBalance);\n\t}\n\n    // set a withdrawal amount for a player\n\tfunction setWithdrawal(address _player, uint256 _amount) external pausable isAuthorized {\n\t    assert(_amount <= maxWithdrawal); // check max withdrawal\n        assert(add(withdrawals[_player].amount, _amount) <= maxWithdrawal);\n        withdrawals[_player].amount = add(withdrawals[_player].amount, _amount);\n        withdrawals[_player].timestamp = block.timestamp;\n        emit WithdrawalSet(_player, _amount);\n\t}\n\n\tfunction withdraw(uint256 _amount) external pausable {\n        assert(_amount <= withdrawals[msg.sender].amount);\n        assert(_amount <= maxWithdrawal);\n        assert(block.timestamp > add(withdrawals[msg.sender].timestamp, releaseTime));\n        \n\t\tbalances[msg.sender] = sub(balances[msg.sender], _amount);\n\t\twithdrawals[msg.sender].amount = sub(withdrawals[msg.sender].amount, _amount);\n\t\t\n\t\tassert(token.transfer(msg.sender, _amount));\n\t\temit WithdrawalEvent(msg.sender, _amount);\n\t}\n\n\tfunction changeMaxDeposit(uint256 _max) external pausable isOwner {\n\t    maxDeposit = _max;\n\t    \n\t    emit MaxDepositChange(_max);\n\t}\n\n\tfunction changeMaxWithdrawal(uint256 _max) external pausable isOwner {\n\t    maxWithdrawal = _max;\n\t    \n\t    emit MaxWithdrawalChange(_max);\n\t}\n\n\tfunction ownerWithdrawalEther(address payable _destination, uint256 _amount) external isOwner {\n\t    assert(paused == true); // allow ether withdrawal for accidents\n\t\t_destination.transfer(_amount);\n\t}\n\n\tfunction ownerWithdrawalTokens(address _destination, uint256 _amount) external isOwner {\n\t    assert((paused == false && _amount <= totalPlayerBalance) // only house winnings\n\t        || paused == true); // or take entire balance if paused..\n\t\tassert(token.transfer(_destination, _amount));\n\t\t\n\t\tif (paused == false) {\n\t\t    totalPlayerBalance = sub(totalPlayerBalance, _amount);\n\t\t}\n\t\t\n\t\temit WithdrawalEvent(address(this), _amount);\n\t}\n}",
    "sourcePath": "/Users/ruipedro/Desktop/BetProtocol/ethereum-tools/contracts/SingleTokenBank.sol",
    "compiler": {
        "name": "solc",
        "version": "0.5.8+commit.23d335f2.Emscripten.clang"
    },
    "schemaVersion": "3.0.11",
    "updatedAt": "2019-08-04T12:05:51.149Z",
    "devdoc": {
        "author": "EIP/ERC20 AuthorsBokkyPooBah / Bok Consulting Pty Ltd 2018.",
        "methods": {},
        "title": "SingleTokenBank"
    },
    "userdoc": {
        "methods": {
            "bankroll()": {
                "notice": "returns the current bankroll in tokens with 0 decimals*"
            }
        },
        "notice": "The ERC20 standard contract interface."
    }
}